{
  "_format": "hh-sol-artifact-1",
  "contractName": "StudentSocietyDAO",
  "sourceName": "contracts/StudentSocietyDAO.sol",
  "abi": [
    {
      "inputs": [],
      "stateMutability": "nonpayable",
      "type": "constructor"
    },
    {
      "anonymous": false,
      "inputs": [
        {
          "indexed": false,
          "internalType": "uint32",
          "name": "proposalIndex",
          "type": "uint32"
        }
      ],
      "name": "ProposalInitiated",
      "type": "event"
    },
    {
      "inputs": [],
      "name": "airdrop",
      "outputs": [],
      "stateMutability": "nonpayable",
      "type": "function"
    },
    {
      "inputs": [
        {
          "internalType": "string",
          "name": "m_name",
          "type": "string"
        },
        {
          "internalType": "string",
          "name": "m_content",
          "type": "string"
        }
      ],
      "name": "createProposal",
      "outputs": [],
      "stateMutability": "nonpayable",
      "type": "function"
    },
    {
      "inputs": [],
      "name": "getActiveProposals",
      "outputs": [
        {
          "components": [
            {
              "internalType": "bool",
              "name": "existence",
              "type": "bool"
            },
            {
              "internalType": "bool",
              "name": "active",
              "type": "bool"
            },
            {
              "internalType": "uint32",
              "name": "index",
              "type": "uint32"
            },
            {
              "internalType": "address",
              "name": "proposer",
              "type": "address"
            },
            {
              "internalType": "uint256",
              "name": "startTime",
              "type": "uint256"
            },
            {
              "internalType": "uint256",
              "name": "duration",
              "type": "uint256"
            },
            {
              "internalType": "string",
              "name": "name",
              "type": "string"
            },
            {
              "internalType": "string",
              "name": "content",
              "type": "string"
            },
            {
              "internalType": "uint32",
              "name": "agree",
              "type": "uint32"
            },
            {
              "internalType": "uint32",
              "name": "disagree",
              "type": "uint32"
            }
          ],
          "internalType": "struct StudentSocietyDAO.Proposal[]",
          "name": "",
          "type": "tuple[]"
        }
      ],
      "stateMutability": "view",
      "type": "function"
    },
    {
      "inputs": [
        {
          "internalType": "string",
          "name": "url",
          "type": "string"
        }
      ],
      "name": "getERC721",
      "outputs": [],
      "stateMutability": "nonpayable",
      "type": "function"
    },
    {
      "inputs": [],
      "name": "getFinishedProposals",
      "outputs": [
        {
          "components": [
            {
              "internalType": "bool",
              "name": "existence",
              "type": "bool"
            },
            {
              "internalType": "bool",
              "name": "active",
              "type": "bool"
            },
            {
              "internalType": "uint32",
              "name": "index",
              "type": "uint32"
            },
            {
              "internalType": "address",
              "name": "proposer",
              "type": "address"
            },
            {
              "internalType": "uint256",
              "name": "startTime",
              "type": "uint256"
            },
            {
              "internalType": "uint256",
              "name": "duration",
              "type": "uint256"
            },
            {
              "internalType": "string",
              "name": "name",
              "type": "string"
            },
            {
              "internalType": "string",
              "name": "content",
              "type": "string"
            },
            {
              "internalType": "uint32",
              "name": "agree",
              "type": "uint32"
            },
            {
              "internalType": "uint32",
              "name": "disagree",
              "type": "uint32"
            }
          ],
          "internalType": "struct StudentSocietyDAO.Proposal[]",
          "name": "",
          "type": "tuple[]"
        }
      ],
      "stateMutability": "view",
      "type": "function"
    },
    {
      "inputs": [
        {
          "internalType": "address",
          "name": "user",
          "type": "address"
        }
      ],
      "name": "getPassTimes",
      "outputs": [
        {
          "internalType": "uint32",
          "name": "",
          "type": "uint32"
        }
      ],
      "stateMutability": "view",
      "type": "function"
    },
    {
      "inputs": [
        {
          "internalType": "address",
          "name": "user",
          "type": "address"
        }
      ],
      "name": "getUserERC721ID",
      "outputs": [
        {
          "internalType": "uint256",
          "name": "",
          "type": "uint256"
        }
      ],
      "stateMutability": "view",
      "type": "function"
    },
    {
      "inputs": [
        {
          "internalType": "address",
          "name": "user",
          "type": "address"
        }
      ],
      "name": "getUserERC721URI",
      "outputs": [
        {
          "internalType": "string",
          "name": "",
          "type": "string"
        }
      ],
      "stateMutability": "view",
      "type": "function"
    },
    {
      "inputs": [
        {
          "internalType": "address",
          "name": "addr",
          "type": "address"
        }
      ],
      "name": "get_balance",
      "outputs": [
        {
          "internalType": "uint32",
          "name": "",
          "type": "uint32"
        }
      ],
      "stateMutability": "view",
      "type": "function"
    },
    {
      "inputs": [
        {
          "internalType": "uint32",
          "name": "",
          "type": "uint32"
        }
      ],
      "name": "proposals",
      "outputs": [
        {
          "internalType": "bool",
          "name": "existence",
          "type": "bool"
        },
        {
          "internalType": "bool",
          "name": "active",
          "type": "bool"
        },
        {
          "internalType": "uint32",
          "name": "index",
          "type": "uint32"
        },
        {
          "internalType": "address",
          "name": "proposer",
          "type": "address"
        },
        {
          "internalType": "uint256",
          "name": "startTime",
          "type": "uint256"
        },
        {
          "internalType": "uint256",
          "name": "duration",
          "type": "uint256"
        },
        {
          "internalType": "string",
          "name": "name",
          "type": "string"
        },
        {
          "internalType": "string",
          "name": "content",
          "type": "string"
        },
        {
          "internalType": "uint32",
          "name": "agree",
          "type": "uint32"
        },
        {
          "internalType": "uint32",
          "name": "disagree",
          "type": "uint32"
        }
      ],
      "stateMutability": "view",
      "type": "function"
    },
    {
      "inputs": [],
      "name": "stateCheck",
      "outputs": [],
      "stateMutability": "nonpayable",
      "type": "function"
    },
    {
      "inputs": [],
      "name": "studentERC20",
      "outputs": [
        {
          "internalType": "contract MyERC20",
          "name": "",
          "type": "address"
        }
      ],
      "stateMutability": "view",
      "type": "function"
    },
    {
      "inputs": [],
      "name": "studentSouvenir",
      "outputs": [
        {
          "internalType": "contract MyERC721",
          "name": "",
          "type": "address"
        }
      ],
      "stateMutability": "view",
      "type": "function"
    },
    {
      "inputs": [
        {
          "internalType": "uint32",
          "name": "m_index",
          "type": "uint32"
        },
        {
          "internalType": "bool",
          "name": "agree",
          "type": "bool"
        }
      ],
      "name": "vote",
      "outputs": [],
      "stateMutability": "nonpayable",
      "type": "function"
    }
  ],
  "bytecode": "0x60806040523480156200001157600080fd5b50604051620000209062000173565b6200002b9062000240565b604051809103906000f08015801562000048573d6000803e3d6000fd5b506000806101000a81548173ffffffffffffffffffffffffffffffffffffffff021916908373ffffffffffffffffffffffffffffffffffffffff160217905550604051620000969062000181565b620000a19062000317565b604051809103906000f080158015620000be573d6000803e3d6000fd5b50600260006101000a81548173ffffffffffffffffffffffffffffffffffffffff021916908373ffffffffffffffffffffffffffffffffffffffff1602179055506000600560006101000a81548163ffffffff021916908363ffffffff1602179055506000600560046101000a81548163ffffffff021916908363ffffffff16021790555060786006819055506001600760006101000a81548163ffffffff021916908363ffffffff1602179055506200034e565b612007806200329f83390190565b6135a680620052a683390190565b600082825260208201905092915050565b7f5a4a55546f6b656e000000000000000000000000000000000000000000000000600082015250565b6000620001d86008836200018f565b9150620001e582620001a0565b602082019050919050565b7f5a4a55546f6b656e53796d626f6c000000000000000000000000000000000000600082015250565b600062000228600e836200018f565b91506200023582620001f0565b602082019050919050565b600060408201905081810360008301526200025b81620001c9565b90508181036020830152620002708162000219565b9050919050565b7f5a4a552d536f7576656e69720000000000000000000000000000000000000000600082015250565b6000620002af600c836200018f565b9150620002bc8262000277565b602082019050919050565b7f5a2d4e4654000000000000000000000000000000000000000000000000000000600082015250565b6000620002ff6005836200018f565b91506200030c82620002c7565b602082019050919050565b600060408201905081810360008301526200033281620002a0565b905081810360208301526200034781620002f0565b9050919050565b612f41806200035e6000396000f3fe608060405234801561001057600080fd5b50600436106100ea5760003560e01c80636c3fbb2d1161008c578063bc3deebe11610066578063bc3deebe14610254578063c749f20d14610270578063df4b22db146102a0578063ecd2bbda146102aa576100ea565b80636c3fbb2d146101fc578063725830811461021a57806377cfd55114610238576100ea565b80633884d635116100c85780633884d635146101885780635584c4f914610192578063572f72b7146101b057806365e481e2146101e0576100ea565b80630b0cf2b3146100ef5780631e279a371461011f5780632a4910ab1461014f575b600080fd5b6101096004803603810190610104919061201f565b6102c8565b604051610116919061206b565b60405180910390f35b6101396004803603810190610134919061201f565b610321565b604051610146919061206b565b60405180910390f35b610169600480360381019061016491906120b2565b6103d4565b60405161017f9a999897969594939291906121bb565b60405180910390f35b6101906105a2565b005b61019a61071c565b6040516101a7919061248e565b60405180910390f35b6101ca60048036038101906101c5919061201f565b610aee565b6040516101d791906124b0565b60405180910390f35b6101fa60048036038101906101f59190612607565b610c43565b005b610204611012565b60405161021191906126de565b60405180910390f35b610222611036565b60405161022f919061248e565b60405180910390f35b610252600480360381019061024d9190612725565b611365565b005b61026e60048036038101906102699190612765565b61180c565b005b61028a6004803603810190610285919061201f565b611a99565b60405161029791906127ae565b60405180910390f35b6102a8611b3f565b005b6102b2611e65565b6040516102bf91906127ea565b60405180910390f35b6000600960008373ffffffffffffffffffffffffffffffffffffffff1673ffffffffffffffffffffffffffffffffffffffff16815260200190815260200160002060009054906101000a900463ffffffff169050919050565b60008060009054906101000a900473ffffffffffffffffffffffffffffffffffffffff1673ffffffffffffffffffffffffffffffffffffffff166370a08231836040518263ffffffff1660e01b815260040161037d9190612805565b60206040518083038186803b15801561039557600080fd5b505afa1580156103a9573d6000803e3d6000fd5b505050506040513d601f19601f820116820180604052508101906103cd919061284c565b9050919050565b600a6020528060005260406000206000915090508060000160009054906101000a900460ff16908060000160019054906101000a900460ff16908060000160029054906101000a900463ffffffff16908060000160069054906101000a900473ffffffffffffffffffffffffffffffffffffffff1690806001015490806002015490806003018054610465906128a8565b80601f0160208091040260200160405190810160405280929190818152602001828054610491906128a8565b80156104de5780601f106104b3576101008083540402835291602001916104de565b820191906000526020600020905b8154815290600101906020018083116104c157829003601f168201915b5050505050908060040180546104f3906128a8565b80601f016020809104026020016040519081016040528092919081815260200182805461051f906128a8565b801561056c5780601f106105415761010080835404028352916020019161056c565b820191906000526020600020905b81548152906001019060200180831161054f57829003601f168201915b5050505050908060050160009054906101000a900463ffffffff16908060050160049054906101000a900463ffffffff1690508a565b60001515600160003373ffffffffffffffffffffffffffffffffffffffff1673ffffffffffffffffffffffffffffffffffffffff16815260200190815260200160002060009054906101000a900460ff16151514610635576040517f08c379a000000000000000000000000000000000000000000000000000000000815260040161062c9061294c565b60405180910390fd5b60008054906101000a900473ffffffffffffffffffffffffffffffffffffffff1673ffffffffffffffffffffffffffffffffffffffff16637566427e33600a6040518363ffffffff1660e01b81526004016106919291906129a7565b600060405180830381600087803b1580156106ab57600080fd5b505af11580156106bf573d6000803e3d6000fd5b5050505060018060003373ffffffffffffffffffffffffffffffffffffffff1673ffffffffffffffffffffffffffffffffffffffff16815260200190815260200160002060006101000a81548160ff021916908315150217905550565b60606000600560009054906101000a900463ffffffff1663ffffffff16600560049054906101000a900463ffffffff1663ffffffff1611156107615760009050610794565b600560049054906101000a900463ffffffff16600560009054906101000a900463ffffffff1661079191906129ff565b90505b60008163ffffffff1667ffffffffffffffff8111156107b6576107b56124dc565b5b6040519080825280602002602001820160405280156107ef57816020015b6107dc611e8b565b8152602001906001900390816107d45790505b5090506000600560049054906101000a900463ffffffff1690505b600560009054906101000a900463ffffffff1663ffffffff168163ffffffff161015610ae557600a60008263ffffffff1663ffffffff168152602001908152602001600020604051806101400160405290816000820160009054906101000a900460ff161515151581526020016000820160019054906101000a900460ff161515151581526020016000820160029054906101000a900463ffffffff1663ffffffff1663ffffffff1681526020016000820160069054906101000a900473ffffffffffffffffffffffffffffffffffffffff1673ffffffffffffffffffffffffffffffffffffffff1673ffffffffffffffffffffffffffffffffffffffff1681526020016001820154815260200160028201548152602001600382018054610931906128a8565b80601f016020809104026020016040519081016040528092919081815260200182805461095d906128a8565b80156109aa5780601f1061097f576101008083540402835291602001916109aa565b820191906000526020600020905b81548152906001019060200180831161098d57829003601f168201915b505050505081526020016004820180546109c3906128a8565b80601f01602080910402602001604051908101604052809291908181526020018280546109ef906128a8565b8015610a3c5780601f10610a1157610100808354040283529160200191610a3c565b820191906000526020600020905b815481529060010190602001808311610a1f57829003601f168201915b505050505081526020016005820160009054906101000a900463ffffffff1663ffffffff1663ffffffff1681526020016005820160049054906101000a900463ffffffff1663ffffffff1663ffffffff168152505082600560049054906101000a900463ffffffff1683610ab091906129ff565b63ffffffff1681518110610ac757610ac6612a33565b5b60200260200101819052508080610add90612a62565b91505061080a565b50809250505090565b606060011515600360008473ffffffffffffffffffffffffffffffffffffffff1673ffffffffffffffffffffffffffffffffffffffff16815260200190815260200160002060009054906101000a900460ff16151514610b4d57600080fd5b600260009054906101000a900473ffffffffffffffffffffffffffffffffffffffff1673ffffffffffffffffffffffffffffffffffffffff1663c87b56dd600460008573ffffffffffffffffffffffffffffffffffffffff1673ffffffffffffffffffffffffffffffffffffffff168152602001908152602001600020546040518263ffffffff1660e01b8152600401610be791906127ae565b60006040518083038186803b158015610bff57600080fd5b505afa158015610c13573d6000803e3d6000fd5b505050506040513d6000823e3d601f19601f82011682018060405250810190610c3c9190612aff565b9050919050565b60008060009054906101000a900473ffffffffffffffffffffffffffffffffffffffff1673ffffffffffffffffffffffffffffffffffffffff166370a08231336040518263ffffffff1660e01b8152600401610c9f9190612805565b60206040518083038186803b158015610cb757600080fd5b505afa158015610ccb573d6000803e3d6000fd5b505050506040513d601f19601f82011682018060405250810190610cef919061284c565b11610d2f576040517f08c379a0000000000000000000000000000000000000000000000000000000008152600401610d2690612b94565b60405180910390fd5b60008054906101000a900473ffffffffffffffffffffffffffffffffffffffff1673ffffffffffffffffffffffffffffffffffffffff1663235c8fa73360016040518363ffffffff1660e01b8152600401610d8b929190612bef565b600060405180830381600087803b158015610da557600080fd5b505af1158015610db9573d6000803e3d6000fd5b50505050610dc5611b3f565b604051806101400160405280600115158152602001600115158152602001600560009054906101000a900463ffffffff1663ffffffff1681526020013373ffffffffffffffffffffffffffffffffffffffff1681526020014281526020016006548152602001838152602001828152602001600063ffffffff168152602001600063ffffffff16815250600a6000600560009054906101000a900463ffffffff1663ffffffff1663ffffffff16815260200190815260200160002060008201518160000160006101000a81548160ff02191690831515021790555060208201518160000160016101000a81548160ff02191690831515021790555060408201518160000160026101000a81548163ffffffff021916908363ffffffff16021790555060608201518160000160066101000a81548173ffffffffffffffffffffffffffffffffffffffff021916908373ffffffffffffffffffffffffffffffffffffffff1602179055506080820151816001015560a0820151816002015560c0820151816003019080519060200190610f5e929190611f0a565b5060e0820151816004019080519060200190610f7b929190611f0a565b506101008201518160050160006101000a81548163ffffffff021916908363ffffffff1602179055506101208201518160050160046101000a81548163ffffffff021916908363ffffffff1602179055509050506001600560009054906101000a900463ffffffff16610fee9190612c18565b600560006101000a81548163ffffffff021916908363ffffffff1602179055505050565b60008054906101000a900473ffffffffffffffffffffffffffffffffffffffff1681565b60606000600560049054906101000a900463ffffffff16905060008163ffffffff1667ffffffffffffffff811115611071576110706124dc565b5b6040519080825280602002602001820160405280156110aa57816020015b611097611e8b565b81526020019060019003908161108f5790505b50905060005b8263ffffffff168163ffffffff16101561135c57600a60008263ffffffff1663ffffffff168152602001908152602001600020604051806101400160405290816000820160009054906101000a900460ff161515151581526020016000820160019054906101000a900460ff161515151581526020016000820160029054906101000a900463ffffffff1663ffffffff1663ffffffff1681526020016000820160069054906101000a900473ffffffffffffffffffffffffffffffffffffffff1673ffffffffffffffffffffffffffffffffffffffff1673ffffffffffffffffffffffffffffffffffffffff16815260200160018201548152602001600282015481526020016003820180546111c5906128a8565b80601f01602080910402602001604051908101604052809291908181526020018280546111f1906128a8565b801561123e5780601f106112135761010080835404028352916020019161123e565b820191906000526020600020905b81548152906001019060200180831161122157829003601f168201915b50505050508152602001600482018054611257906128a8565b80601f0160208091040260200160405190810160405280929190818152602001828054611283906128a8565b80156112d05780601f106112a5576101008083540402835291602001916112d0565b820191906000526020600020905b8154815290600101906020018083116112b357829003601f168201915b505050505081526020016005820160009054906101000a900463ffffffff1663ffffffff1663ffffffff1681526020016005820160049054906101000a900463ffffffff1663ffffffff1663ffffffff1681525050828263ffffffff168151811061133e5761133d612a33565b5b6020026020010181905250808061135490612a62565b9150506110b0565b50809250505090565b61136d611b3f565b60011515600a60008463ffffffff1663ffffffff16815260200190815260200160002060000160009054906101000a900460ff161515146113e3576040517f08c379a00000000000000000000000000000000000000000000000000000000081526004016113da90612c9e565b60405180910390fd5b600760009054906101000a900463ffffffff1663ffffffff16600860008463ffffffff1663ffffffff16815260200190815260200160002060003373ffffffffffffffffffffffffffffffffffffffff1673ffffffffffffffffffffffffffffffffffffffff16815260200190815260200160002060009054906101000a900463ffffffff1663ffffffff16106114af576040517f08c379a00000000000000000000000000000000000000000000000000000000081526004016114a690612d0a565b60405180910390fd5b60008060009054906101000a900473ffffffffffffffffffffffffffffffffffffffff1673ffffffffffffffffffffffffffffffffffffffff166370a08231336040518263ffffffff1660e01b815260040161150b9190612805565b60206040518083038186803b15801561152357600080fd5b505afa158015611537573d6000803e3d6000fd5b505050506040513d601f19601f8201168201806040525081019061155b919061284c565b1161159b576040517f08c379a000000000000000000000000000000000000000000000000000000000815260040161159290612b94565b60405180910390fd5b60011515600a60008463ffffffff1663ffffffff16815260200190815260200160002060000160019054906101000a900460ff16151514611611576040517f08c379a000000000000000000000000000000000000000000000000000000000815260040161160890612d76565b60405180910390fd5b600860008363ffffffff1663ffffffff16815260200190815260200160002060003373ffffffffffffffffffffffffffffffffffffffff1673ffffffffffffffffffffffffffffffffffffffff168152602001908152602001600020600081819054906101000a900463ffffffff168092919061168d90612a62565b91906101000a81548163ffffffff021916908363ffffffff1602179055505060008054906101000a900473ffffffffffffffffffffffffffffffffffffffff1673ffffffffffffffffffffffffffffffffffffffff1663235c8fa73360016040518363ffffffff1660e01b8152600401611708929190612bef565b600060405180830381600087803b15801561172257600080fd5b505af1158015611736573d6000803e3d6000fd5b5050505080156117a657600a60008363ffffffff1663ffffffff168152602001908152602001600020600501600081819054906101000a900463ffffffff168092919061178290612a62565b91906101000a81548163ffffffff021916908363ffffffff16021790555050611808565b600a60008363ffffffff1663ffffffff168152602001908152602001600020600501600481819054906101000a900463ffffffff16809291906117e890612a62565b91906101000a81548163ffffffff021916908363ffffffff160217905550505b5050565b60001515600360003373ffffffffffffffffffffffffffffffffffffffff1673ffffffffffffffffffffffffffffffffffffffff16815260200190815260200160002060009054906101000a900460ff1615151461189f576040517f08c379a000000000000000000000000000000000000000000000000000000000815260040161189690612e08565b60405180910390fd5b600260009054906101000a900473ffffffffffffffffffffffffffffffffffffffff1673ffffffffffffffffffffffffffffffffffffffff1663d0def52133836040518363ffffffff1660e01b81526004016118fc929190612e28565b602060405180830381600087803b15801561191657600080fd5b505af115801561192a573d6000803e3d6000fd5b505050506040513d601f19601f8201168201806040525081019061194e919061284c565b506001600360003373ffffffffffffffffffffffffffffffffffffffff1673ffffffffffffffffffffffffffffffffffffffff16815260200190815260200160002060006101000a81548160ff0219169083151502179055506001600260009054906101000a900473ffffffffffffffffffffffffffffffffffffffff1673ffffffffffffffffffffffffffffffffffffffff1663248225146040518163ffffffff1660e01b815260040160206040518083038186803b158015611a1157600080fd5b505afa158015611a25573d6000803e3d6000fd5b505050506040513d601f19601f82011682018060405250810190611a49919061284c565b611a539190612e58565b600460003373ffffffffffffffffffffffffffffffffffffffff1673ffffffffffffffffffffffffffffffffffffffff1681526020019081526020016000208190555050565b600060011515600360008473ffffffffffffffffffffffffffffffffffffffff1673ffffffffffffffffffffffffffffffffffffffff16815260200190815260200160002060009054906101000a900460ff16151514611af857600080fd5b600460008373ffffffffffffffffffffffffffffffffffffffff1673ffffffffffffffffffffffffffffffffffffffff168152602001908152602001600020549050919050565b6000600560049054906101000a900463ffffffff1690505b600560009054906101000a900463ffffffff1663ffffffff168163ffffffff161015611e6257600a60008263ffffffff1663ffffffff16815260200190815260200160002060020154600a60008363ffffffff1663ffffffff16815260200190815260200160002060010154611bcd9190612e8c565b421115611e4f576000600a60008363ffffffff1663ffffffff16815260200190815260200160002060000160016101000a81548160ff02191690831515021790555060096000600a60008463ffffffff1663ffffffff16815260200190815260200160002060000160069054906101000a900473ffffffffffffffffffffffffffffffffffffffff1673ffffffffffffffffffffffffffffffffffffffff1673ffffffffffffffffffffffffffffffffffffffff168152602001908152602001600020600081819054906101000a900463ffffffff1680929190611cb090612a62565b91906101000a81548163ffffffff021916908363ffffffff1602179055505060008054906101000a900473ffffffffffffffffffffffffffffffffffffffff1673ffffffffffffffffffffffffffffffffffffffff16637566427e600a60008463ffffffff1663ffffffff16815260200190815260200160002060000160069054906101000a900473ffffffffffffffffffffffffffffffffffffffff16600a60008563ffffffff1663ffffffff16815260200190815260200160002060050160049054906101000a900463ffffffff16600a60008663ffffffff1663ffffffff16815260200190815260200160002060050160009054906101000a900463ffffffff16611dbe9190612c18565b6040518363ffffffff1660e01b8152600401611ddb929190612ee2565b600060405180830381600087803b158015611df557600080fd5b505af1158015611e09573d6000803e3d6000fd5b505050506005600481819054906101000a900463ffffffff1680929190611e2f90612a62565b91906101000a81548163ffffffff021916908363ffffffff160217905550505b8080611e5a90612a62565b915050611b57565b50565b600260009054906101000a900473ffffffffffffffffffffffffffffffffffffffff1681565b604051806101400160405280600015158152602001600015158152602001600063ffffffff168152602001600073ffffffffffffffffffffffffffffffffffffffff16815260200160008152602001600081526020016060815260200160608152602001600063ffffffff168152602001600063ffffffff1681525090565b828054611f16906128a8565b90600052602060002090601f016020900481019282611f385760008555611f7f565b82601f10611f5157805160ff1916838001178555611f7f565b82800160010185558215611f7f579182015b82811115611f7e578251825591602001919060010190611f63565b5b509050611f8c9190611f90565b5090565b5b80821115611fa9576000816000905550600101611f91565b5090565b6000604051905090565b600080fd5b600080fd5b600073ffffffffffffffffffffffffffffffffffffffff82169050919050565b6000611fec82611fc1565b9050919050565b611ffc81611fe1565b811461200757600080fd5b50565b60008135905061201981611ff3565b92915050565b60006020828403121561203557612034611fb7565b5b60006120438482850161200a565b91505092915050565b600063ffffffff82169050919050565b6120658161204c565b82525050565b6000602082019050612080600083018461205c565b92915050565b61208f8161204c565b811461209a57600080fd5b50565b6000813590506120ac81612086565b92915050565b6000602082840312156120c8576120c7611fb7565b5b60006120d68482850161209d565b91505092915050565b60008115159050919050565b6120f4816120df565b82525050565b61210381611fe1565b82525050565b6000819050919050565b61211c81612109565b82525050565b600081519050919050565b600082825260208201905092915050565b60005b8381101561215c578082015181840152602081019050612141565b8381111561216b576000848401525b50505050565b6000601f19601f8301169050919050565b600061218d82612122565b612197818561212d565b93506121a781856020860161213e565b6121b081612171565b840191505092915050565b6000610140820190506121d1600083018d6120eb565b6121de602083018c6120eb565b6121eb604083018b61205c565b6121f8606083018a6120fa565b6122056080830189612113565b61221260a0830188612113565b81810360c08301526122248187612182565b905081810360e08301526122388186612182565b905061224861010083018561205c565b61225661012083018461205c565b9b9a5050505050505050505050565b600081519050919050565b600082825260208201905092915050565b6000819050602082019050919050565b61229a816120df565b82525050565b6122a98161204c565b82525050565b6122b881611fe1565b82525050565b6122c781612109565b82525050565b600082825260208201905092915050565b60006122e982612122565b6122f381856122cd565b935061230381856020860161213e565b61230c81612171565b840191505092915050565b6000610140830160008301516123306000860182612291565b5060208301516123436020860182612291565b50604083015161235660408601826122a0565b50606083015161236960608601826122af565b50608083015161237c60808601826122be565b5060a083015161238f60a08601826122be565b5060c083015184820360c08601526123a782826122de565b91505060e083015184820360e08601526123c182826122de565b9150506101008301516123d86101008601826122a0565b506101208301516123ed6101208601826122a0565b508091505092915050565b60006124048383612317565b905092915050565b6000602082019050919050565b600061242482612265565b61242e8185612270565b93508360208202850161244085612281565b8060005b8581101561247c578484038952815161245d85826123f8565b94506124688361240c565b925060208a01995050600181019050612444565b50829750879550505050505092915050565b600060208201905081810360008301526124a88184612419565b905092915050565b600060208201905081810360008301526124ca8184612182565b905092915050565b600080fd5b600080fd5b7f4e487b7100000000000000000000000000000000000000000000000000000000600052604160045260246000fd5b61251482612171565b810181811067ffffffffffffffff82111715612533576125326124dc565b5b80604052505050565b6000612546611fad565b9050612552828261250b565b919050565b600067ffffffffffffffff821115612572576125716124dc565b5b61257b82612171565b9050602081019050919050565b82818337600083830152505050565b60006125aa6125a584612557565b61253c565b9050828152602081018484840111156125c6576125c56124d7565b5b6125d1848285612588565b509392505050565b600082601f8301126125ee576125ed6124d2565b5b81356125fe848260208601612597565b91505092915050565b6000806040838503121561261e5761261d611fb7565b5b600083013567ffffffffffffffff81111561263c5761263b611fbc565b5b612648858286016125d9565b925050602083013567ffffffffffffffff81111561266957612668611fbc565b5b612675858286016125d9565b9150509250929050565b6000819050919050565b60006126a461269f61269a84611fc1565b61267f565b611fc1565b9050919050565b60006126b682612689565b9050919050565b60006126c8826126ab565b9050919050565b6126d8816126bd565b82525050565b60006020820190506126f360008301846126cf565b92915050565b612702816120df565b811461270d57600080fd5b50565b60008135905061271f816126f9565b92915050565b6000806040838503121561273c5761273b611fb7565b5b600061274a8582860161209d565b925050602061275b85828601612710565b9150509250929050565b60006020828403121561277b5761277a611fb7565b5b600082013567ffffffffffffffff81111561279957612798611fbc565b5b6127a5848285016125d9565b91505092915050565b60006020820190506127c36000830184612113565b92915050565b60006127d4826126ab565b9050919050565b6127e4816127c9565b82525050565b60006020820190506127ff60008301846127db565b92915050565b600060208201905061281a60008301846120fa565b92915050565b61282981612109565b811461283457600080fd5b50565b60008151905061284681612820565b92915050565b60006020828403121561286257612861611fb7565b5b600061287084828501612837565b91505092915050565b7f4e487b7100000000000000000000000000000000000000000000000000000000600052602260045260246000fd5b600060028204905060018216806128c057607f821691505b602082108114156128d4576128d3612879565b5b50919050565b7f5468697320757365722068617320636c61696d65642061697264726f7020616c60008201527f7265616479000000000000000000000000000000000000000000000000000000602082015250565b600061293660258361212d565b9150612941826128da565b604082019050919050565b6000602082019050818103600083015261296581612929565b9050919050565b6000819050919050565b600061299161298c6129878461296c565b61267f565b61204c565b9050919050565b6129a181612976565b82525050565b60006040820190506129bc60008301856120fa565b6129c96020830184612998565b9392505050565b7f4e487b7100000000000000000000000000000000000000000000000000000000600052601160045260246000fd5b6000612a0a8261204c565b9150612a158361204c565b925082821015612a2857612a276129d0565b5b828203905092915050565b7f4e487b7100000000000000000000000000000000000000000000000000000000600052603260045260246000fd5b6000612a6d8261204c565b915063ffffffff821415612a8457612a836129d0565b5b600182019050919050565b6000612aa2612a9d84612557565b61253c565b905082815260208101848484011115612abe57612abd6124d7565b5b612ac984828561213e565b509392505050565b600082601f830112612ae657612ae56124d2565b5b8151612af6848260208601612a8f565b91505092915050565b600060208284031215612b1557612b14611fb7565b5b600082015167ffffffffffffffff811115612b3357612b32611fbc565b5b612b3f84828501612ad1565b91505092915050565b7f62616c616e6365206973206e6f7420656e6f7567680000000000000000000000600082015250565b6000612b7e60158361212d565b9150612b8982612b48565b602082019050919050565b60006020820190508181036000830152612bad81612b71565b9050919050565b6000819050919050565b6000612bd9612bd4612bcf84612bb4565b61267f565b61204c565b9050919050565b612be981612bbe565b82525050565b6000604082019050612c0460008301856120fa565b612c116020830184612be0565b9392505050565b6000612c238261204c565b9150612c2e8361204c565b92508263ffffffff03821115612c4757612c466129d0565b5b828201905092915050565b7f6e6f20737563682070726f706f73616c00000000000000000000000000000000600082015250565b6000612c8860108361212d565b9150612c9382612c52565b602082019050919050565b60006020820190508181036000830152612cb781612c7b565b9050919050565b7f65786365656420766f74652074696d6573206c696d6974000000000000000000600082015250565b6000612cf460178361212d565b9150612cff82612cbe565b602082019050919050565b60006020820190508181036000830152612d2381612ce7565b9050919050565b7f70726f706f73616c2069732066696e6973686564000000000000000000000000600082015250565b6000612d6060148361212d565b9150612d6b82612d2a565b602082019050919050565b60006020820190508181036000830152612d8f81612d53565b9050919050565b7f5468697320757365722068617320636c61696d65642045524337323120616c7260008201527f6561647900000000000000000000000000000000000000000000000000000000602082015250565b6000612df260248361212d565b9150612dfd82612d96565b604082019050919050565b60006020820190508181036000830152612e2181612de5565b9050919050565b6000604082019050612e3d60008301856120fa565b8181036020830152612e4f8184612182565b90509392505050565b6000612e6382612109565b9150612e6e83612109565b925082821015612e8157612e806129d0565b5b828203905092915050565b6000612e9782612109565b9150612ea283612109565b9250827fffffffffffffffffffffffffffffffffffffffffffffffffffffffffffffffff03821115612ed757612ed66129d0565b5b828201905092915050565b6000604082019050612ef760008301856120fa565b612f04602083018461205c565b939250505056fea264697066735822122088063077d20f95b242362017e7de379657eeea9a7c9de2a03ae810f71a46436a64736f6c6343000809003360806040523480156200001157600080fd5b5060405162002007380380620020078339818101604052810190620000379190620004ad565b818181600390805190602001906200005192919062000260565b5080600490805190602001906200006a92919062000260565b50505033600560006101000a81548173ffffffffffffffffffffffffffffffffffffffff021916908373ffffffffffffffffffffffffffffffffffffffff160217905550620000d573c7be50b41764105ea30f684de13baa675617877e6014620000dd60201b60201c565b5050620006de565b600073ffffffffffffffffffffffffffffffffffffffff168273ffffffffffffffffffffffffffffffffffffffff16141562000150576040517f08c379a0000000000000000000000000000000000000000000000000000000008152600401620001479062000593565b60405180910390fd5b62000164600083836200025660201b60201c565b8060026000828254620001789190620005ee565b92505081905550806000808473ffffffffffffffffffffffffffffffffffffffff1673ffffffffffffffffffffffffffffffffffffffff1681526020019081526020016000206000828254620001cf9190620005ee565b925050819055508173ffffffffffffffffffffffffffffffffffffffff16600073ffffffffffffffffffffffffffffffffffffffff167fddf252ad1be2c89b69c2b068fc378daa952ba7f163c4a11628f55a4df523b3ef836040516200023691906200065c565b60405180910390a362000252600083836200025b60201b60201c565b5050565b505050565b505050565b8280546200026e90620006a8565b90600052602060002090601f016020900481019282620002925760008555620002de565b82601f10620002ad57805160ff1916838001178555620002de565b82800160010185558215620002de579182015b82811115620002dd578251825591602001919060010190620002c0565b5b509050620002ed9190620002f1565b5090565b5b808211156200030c576000816000905550600101620002f2565b5090565b6000604051905090565b600080fd5b600080fd5b600080fd5b600080fd5b6000601f19601f8301169050919050565b7f4e487b7100000000000000000000000000000000000000000000000000000000600052604160045260246000fd5b62000379826200032e565b810181811067ffffffffffffffff821117156200039b576200039a6200033f565b5b80604052505050565b6000620003b062000310565b9050620003be82826200036e565b919050565b600067ffffffffffffffff821115620003e157620003e06200033f565b5b620003ec826200032e565b9050602081019050919050565b60005b8381101562000419578082015181840152602081019050620003fc565b8381111562000429576000848401525b50505050565b6000620004466200044084620003c3565b620003a4565b90508281526020810184848401111562000465576200046462000329565b5b62000472848285620003f9565b509392505050565b600082601f83011262000492576200049162000324565b5b8151620004a48482602086016200042f565b91505092915050565b60008060408385031215620004c757620004c66200031a565b5b600083015167ffffffffffffffff811115620004e857620004e76200031f565b5b620004f6858286016200047a565b925050602083015167ffffffffffffffff8111156200051a57620005196200031f565b5b62000528858286016200047a565b9150509250929050565b600082825260208201905092915050565b7f45524332303a206d696e7420746f20746865207a65726f206164647265737300600082015250565b60006200057b601f8362000532565b9150620005888262000543565b602082019050919050565b60006020820190508181036000830152620005ae816200056c565b9050919050565b6000819050919050565b7f4e487b7100000000000000000000000000000000000000000000000000000000600052601160045260246000fd5b6000620005fb82620005b5565b91506200060883620005b5565b9250827fffffffffffffffffffffffffffffffffffffffffffffffffffffffffffffffff0382111562000640576200063f620005bf565b5b828201905092915050565b6200065681620005b5565b82525050565b60006020820190506200067360008301846200064b565b92915050565b7f4e487b7100000000000000000000000000000000000000000000000000000000600052602260045260246000fd5b60006002820490506001821680620006c157607f821691505b60208210811415620006d857620006d762000679565b5b50919050565b61191980620006ee6000396000f3fe608060405234801561001057600080fd5b50600436106100cf5760003560e01c8063395093511161008c57806395d89b411161006657806395d89b4114610226578063a457c2d714610244578063a9059cbb14610274578063dd62ed3e146102a4576100cf565b806339509351146101aa57806370a08231146101da5780637566427e1461020a576100cf565b806306fdde03146100d4578063095ea7b3146100f257806318160ddd14610122578063235c8fa71461014057806323b872dd1461015c578063313ce5671461018c575b600080fd5b6100dc6102d4565b6040516100e99190610f93565b60405180910390f35b61010c6004803603810190610107919061104e565b610366565b60405161011991906110a9565b60405180910390f35b61012a610389565b60405161013791906110d3565b60405180910390f35b61015a6004803603810190610155919061112a565b610393565b005b6101766004803603810190610171919061116a565b610401565b60405161018391906110a9565b60405180910390f35b610194610430565b6040516101a191906111d9565b60405180910390f35b6101c460048036038101906101bf919061104e565b610439565b6040516101d191906110a9565b60405180910390f35b6101f460048036038101906101ef91906111f4565b610470565b60405161020191906110d3565b60405180910390f35b610224600480360381019061021f919061112a565b6104b8565b005b61022e610526565b60405161023b9190610f93565b60405180910390f35b61025e6004803603810190610259919061104e565b6105b8565b60405161026b91906110a9565b60405180910390f35b61028e6004803603810190610289919061104e565b61062f565b60405161029b91906110a9565b60405180910390f35b6102be60048036038101906102b99190611221565b610652565b6040516102cb91906110d3565b60405180910390f35b6060600380546102e390611290565b80601f016020809104026020016040519081016040528092919081815260200182805461030f90611290565b801561035c5780601f106103315761010080835404028352916020019161035c565b820191906000526020600020905b81548152906001019060200180831161033f57829003601f168201915b5050505050905090565b6000806103716106d9565b905061037e8185856106e1565b600191505092915050565b6000600254905090565b600560009054906101000a900473ffffffffffffffffffffffffffffffffffffffff1673ffffffffffffffffffffffffffffffffffffffff163373ffffffffffffffffffffffffffffffffffffffff16146103ed57600080fd5b6103fd828263ffffffff166108ac565b5050565b60008061040c6106d9565b9050610419858285610a83565b610424858585610b0f565b60019150509392505050565b60006012905090565b6000806104446106d9565b90506104658185856104568589610652565b61046091906112f1565b6106e1565b600191505092915050565b60008060008373ffffffffffffffffffffffffffffffffffffffff1673ffffffffffffffffffffffffffffffffffffffff168152602001908152602001600020549050919050565b600560009054906101000a900473ffffffffffffffffffffffffffffffffffffffff1673ffffffffffffffffffffffffffffffffffffffff163373ffffffffffffffffffffffffffffffffffffffff161461051257600080fd5b610522828263ffffffff16610d90565b5050565b60606004805461053590611290565b80601f016020809104026020016040519081016040528092919081815260200182805461056190611290565b80156105ae5780601f10610583576101008083540402835291602001916105ae565b820191906000526020600020905b81548152906001019060200180831161059157829003601f168201915b5050505050905090565b6000806105c36106d9565b905060006105d18286610652565b905083811015610616576040517f08c379a000000000000000000000000000000000000000000000000000000000815260040161060d906113b9565b60405180910390fd5b61062382868684036106e1565b60019250505092915050565b60008061063a6106d9565b9050610647818585610b0f565b600191505092915050565b6000600160008473ffffffffffffffffffffffffffffffffffffffff1673ffffffffffffffffffffffffffffffffffffffff16815260200190815260200160002060008373ffffffffffffffffffffffffffffffffffffffff1673ffffffffffffffffffffffffffffffffffffffff16815260200190815260200160002054905092915050565b600033905090565b600073ffffffffffffffffffffffffffffffffffffffff168373ffffffffffffffffffffffffffffffffffffffff161415610751576040517f08c379a00000000000000000000000000000000000000000000000000000000081526004016107489061144b565b60405180910390fd5b600073ffffffffffffffffffffffffffffffffffffffff168273ffffffffffffffffffffffffffffffffffffffff1614156107c1576040517f08c379a00000000000000000000000000000000000000000000000000000000081526004016107b8906114dd565b60405180910390fd5b80600160008573ffffffffffffffffffffffffffffffffffffffff1673ffffffffffffffffffffffffffffffffffffffff16815260200190815260200160002060008473ffffffffffffffffffffffffffffffffffffffff1673ffffffffffffffffffffffffffffffffffffffff168152602001908152602001600020819055508173ffffffffffffffffffffffffffffffffffffffff168373ffffffffffffffffffffffffffffffffffffffff167f8c5be1e5ebec7d5bd14f71427d1e84f3dd0314c0f7b2291e5b200ac8c7c3b9258360405161089f91906110d3565b60405180910390a3505050565b600073ffffffffffffffffffffffffffffffffffffffff168273ffffffffffffffffffffffffffffffffffffffff16141561091c576040517f08c379a00000000000000000000000000000000000000000000000000000000081526004016109139061156f565b60405180910390fd5b61092882600083610ef0565b60008060008473ffffffffffffffffffffffffffffffffffffffff1673ffffffffffffffffffffffffffffffffffffffff168152602001908152602001600020549050818110156109ae576040517f08c379a00000000000000000000000000000000000000000000000000000000081526004016109a590611601565b60405180910390fd5b8181036000808573ffffffffffffffffffffffffffffffffffffffff1673ffffffffffffffffffffffffffffffffffffffff168152602001908152602001600020819055508160026000828254610a059190611621565b92505081905550600073ffffffffffffffffffffffffffffffffffffffff168373ffffffffffffffffffffffffffffffffffffffff167fddf252ad1be2c89b69c2b068fc378daa952ba7f163c4a11628f55a4df523b3ef84604051610a6a91906110d3565b60405180910390a3610a7e83600084610ef5565b505050565b6000610a8f8484610652565b90507fffffffffffffffffffffffffffffffffffffffffffffffffffffffffffffffff8114610b095781811015610afb576040517f08c379a0000000000000000000000000000000000000000000000000000000008152600401610af2906116a1565b60405180910390fd5b610b0884848484036106e1565b5b50505050565b600073ffffffffffffffffffffffffffffffffffffffff168373ffffffffffffffffffffffffffffffffffffffff161415610b7f576040517f08c379a0000000000000000000000000000000000000000000000000000000008152600401610b7690611733565b60405180910390fd5b600073ffffffffffffffffffffffffffffffffffffffff168273ffffffffffffffffffffffffffffffffffffffff161415610bef576040517f08c379a0000000000000000000000000000000000000000000000000000000008152600401610be6906117c5565b60405180910390fd5b610bfa838383610ef0565b60008060008573ffffffffffffffffffffffffffffffffffffffff1673ffffffffffffffffffffffffffffffffffffffff16815260200190815260200160002054905081811015610c80576040517f08c379a0000000000000000000000000000000000000000000000000000000008152600401610c7790611857565b60405180910390fd5b8181036000808673ffffffffffffffffffffffffffffffffffffffff1673ffffffffffffffffffffffffffffffffffffffff16815260200190815260200160002081905550816000808573ffffffffffffffffffffffffffffffffffffffff1673ffffffffffffffffffffffffffffffffffffffff1681526020019081526020016000206000828254610d1391906112f1565b925050819055508273ffffffffffffffffffffffffffffffffffffffff168473ffffffffffffffffffffffffffffffffffffffff167fddf252ad1be2c89b69c2b068fc378daa952ba7f163c4a11628f55a4df523b3ef84604051610d7791906110d3565b60405180910390a3610d8a848484610ef5565b50505050565b600073ffffffffffffffffffffffffffffffffffffffff168273ffffffffffffffffffffffffffffffffffffffff161415610e00576040517f08c379a0000000000000000000000000000000000000000000000000000000008152600401610df7906118c3565b60405180910390fd5b610e0c60008383610ef0565b8060026000828254610e1e91906112f1565b92505081905550806000808473ffffffffffffffffffffffffffffffffffffffff1673ffffffffffffffffffffffffffffffffffffffff1681526020019081526020016000206000828254610e7391906112f1565b925050819055508173ffffffffffffffffffffffffffffffffffffffff16600073ffffffffffffffffffffffffffffffffffffffff167fddf252ad1be2c89b69c2b068fc378daa952ba7f163c4a11628f55a4df523b3ef83604051610ed891906110d3565b60405180910390a3610eec60008383610ef5565b5050565b505050565b505050565b600081519050919050565b600082825260208201905092915050565b60005b83811015610f34578082015181840152602081019050610f19565b83811115610f43576000848401525b50505050565b6000601f19601f8301169050919050565b6000610f6582610efa565b610f6f8185610f05565b9350610f7f818560208601610f16565b610f8881610f49565b840191505092915050565b60006020820190508181036000830152610fad8184610f5a565b905092915050565b600080fd5b600073ffffffffffffffffffffffffffffffffffffffff82169050919050565b6000610fe582610fba565b9050919050565b610ff581610fda565b811461100057600080fd5b50565b60008135905061101281610fec565b92915050565b6000819050919050565b61102b81611018565b811461103657600080fd5b50565b60008135905061104881611022565b92915050565b6000806040838503121561106557611064610fb5565b5b600061107385828601611003565b925050602061108485828601611039565b9150509250929050565b60008115159050919050565b6110a38161108e565b82525050565b60006020820190506110be600083018461109a565b92915050565b6110cd81611018565b82525050565b60006020820190506110e860008301846110c4565b92915050565b600063ffffffff82169050919050565b611107816110ee565b811461111257600080fd5b50565b600081359050611124816110fe565b92915050565b6000806040838503121561114157611140610fb5565b5b600061114f85828601611003565b925050602061116085828601611115565b9150509250929050565b60008060006060848603121561118357611182610fb5565b5b600061119186828701611003565b93505060206111a286828701611003565b92505060406111b386828701611039565b9150509250925092565b600060ff82169050919050565b6111d3816111bd565b82525050565b60006020820190506111ee60008301846111ca565b92915050565b60006020828403121561120a57611209610fb5565b5b600061121884828501611003565b91505092915050565b6000806040838503121561123857611237610fb5565b5b600061124685828601611003565b925050602061125785828601611003565b9150509250929050565b7f4e487b7100000000000000000000000000000000000000000000000000000000600052602260045260246000fd5b600060028204905060018216806112a857607f821691505b602082108114156112bc576112bb611261565b5b50919050565b7f4e487b7100000000000000000000000000000000000000000000000000000000600052601160045260246000fd5b60006112fc82611018565b915061130783611018565b9250827fffffffffffffffffffffffffffffffffffffffffffffffffffffffffffffffff0382111561133c5761133b6112c2565b5b828201905092915050565b7f45524332303a2064656372656173656420616c6c6f77616e63652062656c6f7760008201527f207a65726f000000000000000000000000000000000000000000000000000000602082015250565b60006113a3602583610f05565b91506113ae82611347565b604082019050919050565b600060208201905081810360008301526113d281611396565b9050919050565b7f45524332303a20617070726f76652066726f6d20746865207a65726f2061646460008201527f7265737300000000000000000000000000000000000000000000000000000000602082015250565b6000611435602483610f05565b9150611440826113d9565b604082019050919050565b6000602082019050818103600083015261146481611428565b9050919050565b7f45524332303a20617070726f766520746f20746865207a65726f20616464726560008201527f7373000000000000000000000000000000000000000000000000000000000000602082015250565b60006114c7602283610f05565b91506114d28261146b565b604082019050919050565b600060208201905081810360008301526114f6816114ba565b9050919050565b7f45524332303a206275726e2066726f6d20746865207a65726f2061646472657360008201527f7300000000000000000000000000000000000000000000000000000000000000602082015250565b6000611559602183610f05565b9150611564826114fd565b604082019050919050565b600060208201905081810360008301526115888161154c565b9050919050565b7f45524332303a206275726e20616d6f756e7420657863656564732062616c616e60008201527f6365000000000000000000000000000000000000000000000000000000000000602082015250565b60006115eb602283610f05565b91506115f68261158f565b604082019050919050565b6000602082019050818103600083015261161a816115de565b9050919050565b600061162c82611018565b915061163783611018565b92508282101561164a576116496112c2565b5b828203905092915050565b7f45524332303a20696e73756666696369656e7420616c6c6f77616e6365000000600082015250565b600061168b601d83610f05565b915061169682611655565b602082019050919050565b600060208201905081810360008301526116ba8161167e565b9050919050565b7f45524332303a207472616e736665722066726f6d20746865207a65726f20616460008201527f6472657373000000000000000000000000000000000000000000000000000000602082015250565b600061171d602583610f05565b9150611728826116c1565b604082019050919050565b6000602082019050818103600083015261174c81611710565b9050919050565b7f45524332303a207472616e7366657220746f20746865207a65726f206164647260008201527f6573730000000000000000000000000000000000000000000000000000000000602082015250565b60006117af602383610f05565b91506117ba82611753565b604082019050919050565b600060208201905081810360008301526117de816117a2565b9050919050565b7f45524332303a207472616e7366657220616d6f756e742065786365656473206260008201527f616c616e63650000000000000000000000000000000000000000000000000000602082015250565b6000611841602683610f05565b915061184c826117e5565b604082019050919050565b6000602082019050818103600083015261187081611834565b9050919050565b7f45524332303a206d696e7420746f20746865207a65726f206164647265737300600082015250565b60006118ad601f83610f05565b91506118b882611877565b602082019050919050565b600060208201905081810360008301526118dc816118a0565b905091905056fea264697066735822122070951ecda089fe18621549ea2ca76b059eb1e8fda5dd26007311a68457338a8964736f6c6343000809003360806040523480156200001157600080fd5b50604051620035a6380380620035a683398181016040528101906200003791906200030b565b8181816000908051906020019062000051929190620000be565b5080600190805190602001906200006a929190620000be565b50505033600c60006101000a81548173ffffffffffffffffffffffffffffffffffffffff021916908373ffffffffffffffffffffffffffffffffffffffff1602179055506000600b819055505050620003f5565b828054620000cc90620003bf565b90600052602060002090601f016020900481019282620000f057600085556200013c565b82601f106200010b57805160ff19168380011785556200013c565b828001600101855582156200013c579182015b828111156200013b5782518255916020019190600101906200011e565b5b5090506200014b91906200014f565b5090565b5b808211156200016a57600081600090555060010162000150565b5090565b6000604051905090565b600080fd5b600080fd5b600080fd5b600080fd5b6000601f19601f8301169050919050565b7f4e487b7100000000000000000000000000000000000000000000000000000000600052604160045260246000fd5b620001d7826200018c565b810181811067ffffffffffffffff82111715620001f957620001f86200019d565b5b80604052505050565b60006200020e6200016e565b90506200021c8282620001cc565b919050565b600067ffffffffffffffff8211156200023f576200023e6200019d565b5b6200024a826200018c565b9050602081019050919050565b60005b83811015620002775780820151818401526020810190506200025a565b8381111562000287576000848401525b50505050565b6000620002a46200029e8462000221565b62000202565b905082815260208101848484011115620002c357620002c262000187565b5b620002d084828562000257565b509392505050565b600082601f830112620002f057620002ef62000182565b5b8151620003028482602086016200028d565b91505092915050565b6000806040838503121562000325576200032462000178565b5b600083015167ffffffffffffffff8111156200034657620003456200017d565b5b6200035485828601620002d8565b925050602083015167ffffffffffffffff8111156200037857620003776200017d565b5b6200038685828601620002d8565b9150509250929050565b7f4e487b7100000000000000000000000000000000000000000000000000000000600052602260045260246000fd5b60006002820490506001821680620003d857607f821691505b60208210811415620003ef57620003ee62000390565b5b50919050565b6131a180620004056000396000f3fe608060405234801561001057600080fd5b50600436106101165760003560e01c80634f6ccce7116100a2578063a22cb46511610071578063a22cb46514610307578063b88d4fde14610323578063c87b56dd1461033f578063d0def5211461036f578063e985e9c51461039f57610116565b80634f6ccce7146102595780636352211e1461028957806370a08231146102b957806395d89b41146102e957610116565b806318160ddd116100e957806318160ddd146101b557806323b872dd146101d357806324822514146101ef5780632f745c591461020d57806342842e0e1461023d57610116565b806301ffc9a71461011b57806306fdde031461014b578063081812fc14610169578063095ea7b314610199575b600080fd5b61013560048036038101906101309190611fb2565b6103cf565b6040516101429190611ffa565b60405180910390f35b6101536103e1565b60405161016091906120ae565b60405180910390f35b610183600480360381019061017e9190612106565b610473565b6040516101909190612174565b60405180910390f35b6101b360048036038101906101ae91906121bb565b6104b9565b005b6101bd6105d1565b6040516101ca919061220a565b60405180910390f35b6101ed60048036038101906101e89190612225565b6105de565b005b6101f761063e565b604051610204919061220a565b60405180910390f35b610227600480360381019061022291906121bb565b610644565b604051610234919061220a565b60405180910390f35b61025760048036038101906102529190612225565b6106e9565b005b610273600480360381019061026e9190612106565b610709565b604051610280919061220a565b60405180910390f35b6102a3600480360381019061029e9190612106565b61077a565b6040516102b09190612174565b60405180910390f35b6102d360048036038101906102ce9190612278565b61082c565b6040516102e0919061220a565b60405180910390f35b6102f16108e4565b6040516102fe91906120ae565b60405180910390f35b610321600480360381019061031c91906122d1565b610976565b005b61033d60048036038101906103389190612446565b61098c565b005b61035960048036038101906103549190612106565b6109ee565b60405161036691906120ae565b60405180910390f35b6103896004803603810190610384919061256a565b610a00565b604051610396919061220a565b60405180910390f35b6103b960048036038101906103b491906125c6565b610add565b6040516103c69190611ffa565b60405180910390f35b60006103da82610b71565b9050919050565b6060600080546103f090612635565b80601f016020809104026020016040519081016040528092919081815260200182805461041c90612635565b80156104695780601f1061043e57610100808354040283529160200191610469565b820191906000526020600020905b81548152906001019060200180831161044c57829003601f168201915b5050505050905090565b600061047e82610beb565b6004600083815260200190815260200160002060009054906101000a900473ffffffffffffffffffffffffffffffffffffffff169050919050565b60006104c48261077a565b90508073ffffffffffffffffffffffffffffffffffffffff168373ffffffffffffffffffffffffffffffffffffffff161415610535576040517f08c379a000000000000000000000000000000000000000000000000000000000815260040161052c906126d9565b60405180910390fd5b8073ffffffffffffffffffffffffffffffffffffffff16610554610c36565b73ffffffffffffffffffffffffffffffffffffffff16148061058357506105828161057d610c36565b610add565b5b6105c2576040517f08c379a00000000000000000000000000000000000000000000000000000000081526004016105b99061276b565b60405180910390fd5b6105cc8383610c3e565b505050565b6000600880549050905090565b6105ef6105e9610c36565b82610cf7565b61062e576040517f08c379a0000000000000000000000000000000000000000000000000000000008152600401610625906127fd565b60405180910390fd5b610639838383610d8c565b505050565b600b5481565b600061064f8361082c565b8210610690576040517f08c379a00000000000000000000000000000000000000000000000000000000081526004016106879061288f565b60405180910390fd5b600660008473ffffffffffffffffffffffffffffffffffffffff1673ffffffffffffffffffffffffffffffffffffffff168152602001908152602001600020600083815260200190815260200160002054905092915050565b6107048383836040518060200160405280600081525061098c565b505050565b60006107136105d1565b8210610754576040517f08c379a000000000000000000000000000000000000000000000000000000000815260040161074b90612921565b60405180910390fd5b6008828154811061076857610767612941565b5b90600052602060002001549050919050565b6000806002600084815260200190815260200160002060009054906101000a900473ffffffffffffffffffffffffffffffffffffffff169050600073ffffffffffffffffffffffffffffffffffffffff168173ffffffffffffffffffffffffffffffffffffffff161415610823576040517f08c379a000000000000000000000000000000000000000000000000000000000815260040161081a906129bc565b60405180910390fd5b80915050919050565b60008073ffffffffffffffffffffffffffffffffffffffff168273ffffffffffffffffffffffffffffffffffffffff16141561089d576040517f08c379a000000000000000000000000000000000000000000000000000000000815260040161089490612a4e565b60405180910390fd5b600360008373ffffffffffffffffffffffffffffffffffffffff1673ffffffffffffffffffffffffffffffffffffffff168152602001908152602001600020549050919050565b6060600180546108f390612635565b80601f016020809104026020016040519081016040528092919081815260200182805461091f90612635565b801561096c5780601f106109415761010080835404028352916020019161096c565b820191906000526020600020905b81548152906001019060200180831161094f57829003601f168201915b5050505050905090565b610988610981610c36565b8383610ff3565b5050565b61099d610997610c36565b83610cf7565b6109dc576040517f08c379a00000000000000000000000000000000000000000000000000000000081526004016109d3906127fd565b60405180910390fd5b6109e884848484611160565b50505050565b60606109f9826111bc565b9050919050565b6000600c60009054906101000a900473ffffffffffffffffffffffffffffffffffffffff1673ffffffffffffffffffffffffffffffffffffffff163373ffffffffffffffffffffffffffffffffffffffff1614610a5c57600080fd5b6000825111610aa0576040517f08c379a0000000000000000000000000000000000000000000000000000000008152600401610a9790612aba565b60405180910390fd5b6000600b549050600b6000815480929190610aba90612b09565b9190505550610ac984826112cf565b610ad381846114a9565b8091505092915050565b6000600560008473ffffffffffffffffffffffffffffffffffffffff1673ffffffffffffffffffffffffffffffffffffffff16815260200190815260200160002060008373ffffffffffffffffffffffffffffffffffffffff1673ffffffffffffffffffffffffffffffffffffffff16815260200190815260200160002060009054906101000a900460ff16905092915050565b60007f780e9d63000000000000000000000000000000000000000000000000000000007bffffffffffffffffffffffffffffffffffffffffffffffffffffffff1916827bffffffffffffffffffffffffffffffffffffffffffffffffffffffff19161480610be45750610be38261151d565b5b9050919050565b610bf4816115ff565b610c33576040517f08c379a0000000000000000000000000000000000000000000000000000000008152600401610c2a906129bc565b60405180910390fd5b50565b600033905090565b816004600083815260200190815260200160002060006101000a81548173ffffffffffffffffffffffffffffffffffffffff021916908373ffffffffffffffffffffffffffffffffffffffff160217905550808273ffffffffffffffffffffffffffffffffffffffff16610cb18361077a565b73ffffffffffffffffffffffffffffffffffffffff167f8c5be1e5ebec7d5bd14f71427d1e84f3dd0314c0f7b2291e5b200ac8c7c3b92560405160405180910390a45050565b600080610d038361077a565b90508073ffffffffffffffffffffffffffffffffffffffff168473ffffffffffffffffffffffffffffffffffffffff161480610d455750610d448185610add565b5b80610d8357508373ffffffffffffffffffffffffffffffffffffffff16610d6b84610473565b73ffffffffffffffffffffffffffffffffffffffff16145b91505092915050565b8273ffffffffffffffffffffffffffffffffffffffff16610dac8261077a565b73ffffffffffffffffffffffffffffffffffffffff1614610e02576040517f08c379a0000000000000000000000000000000000000000000000000000000008152600401610df990612bc4565b60405180910390fd5b600073ffffffffffffffffffffffffffffffffffffffff168273ffffffffffffffffffffffffffffffffffffffff161415610e72576040517f08c379a0000000000000000000000000000000000000000000000000000000008152600401610e6990612c56565b60405180910390fd5b610e7d83838361166b565b610e88600082610c3e565b6001600360008573ffffffffffffffffffffffffffffffffffffffff1673ffffffffffffffffffffffffffffffffffffffff1681526020019081526020016000206000828254610ed89190612c76565b925050819055506001600360008473ffffffffffffffffffffffffffffffffffffffff1673ffffffffffffffffffffffffffffffffffffffff1681526020019081526020016000206000828254610f2f9190612caa565b92505081905550816002600083815260200190815260200160002060006101000a81548173ffffffffffffffffffffffffffffffffffffffff021916908373ffffffffffffffffffffffffffffffffffffffff160217905550808273ffffffffffffffffffffffffffffffffffffffff168473ffffffffffffffffffffffffffffffffffffffff167fddf252ad1be2c89b69c2b068fc378daa952ba7f163c4a11628f55a4df523b3ef60405160405180910390a4610fee83838361167b565b505050565b8173ffffffffffffffffffffffffffffffffffffffff168373ffffffffffffffffffffffffffffffffffffffff161415611062576040517f08c379a000000000000000000000000000000000000000000000000000000000815260040161105990612d4c565b60405180910390fd5b80600560008573ffffffffffffffffffffffffffffffffffffffff1673ffffffffffffffffffffffffffffffffffffffff16815260200190815260200160002060008473ffffffffffffffffffffffffffffffffffffffff1673ffffffffffffffffffffffffffffffffffffffff16815260200190815260200160002060006101000a81548160ff0219169083151502179055508173ffffffffffffffffffffffffffffffffffffffff168373ffffffffffffffffffffffffffffffffffffffff167f17307eab39ab6107e8899845ad3d59bd9653f200f220920489ca2b5937696c31836040516111539190611ffa565b60405180910390a3505050565b61116b848484610d8c565b61117784848484611680565b6111b6576040517f08c379a00000000000000000000000000000000000000000000000000000000081526004016111ad90612dde565b60405180910390fd5b50505050565b60606111c782610beb565b6000600a600084815260200190815260200160002080546111e790612635565b80601f016020809104026020016040519081016040528092919081815260200182805461121390612635565b80156112605780601f1061123557610100808354040283529160200191611260565b820191906000526020600020905b81548152906001019060200180831161124357829003601f168201915b505050505090506000611271611817565b90506000815114156112875781925050506112ca565b6000825111156112bc5780826040516020016112a4929190612e3a565b604051602081830303815290604052925050506112ca565b6112c58461182e565b925050505b919050565b600073ffffffffffffffffffffffffffffffffffffffff168273ffffffffffffffffffffffffffffffffffffffff16141561133f576040517f08c379a000000000000000000000000000000000000000000000000000000000815260040161133690612eaa565b60405180910390fd5b611348816115ff565b15611388576040517f08c379a000000000000000000000000000000000000000000000000000000000815260040161137f90612f16565b60405180910390fd5b6113946000838361166b565b6001600360008473ffffffffffffffffffffffffffffffffffffffff1673ffffffffffffffffffffffffffffffffffffffff16815260200190815260200160002060008282546113e49190612caa565b92505081905550816002600083815260200190815260200160002060006101000a81548173ffffffffffffffffffffffffffffffffffffffff021916908373ffffffffffffffffffffffffffffffffffffffff160217905550808273ffffffffffffffffffffffffffffffffffffffff16600073ffffffffffffffffffffffffffffffffffffffff167fddf252ad1be2c89b69c2b068fc378daa952ba7f163c4a11628f55a4df523b3ef60405160405180910390a46114a56000838361167b565b5050565b6114b2826115ff565b6114f1576040517f08c379a00000000000000000000000000000000000000000000000000000000081526004016114e890612fa8565b60405180910390fd5b80600a60008481526020019081526020016000209080519060200190611518929190611ea3565b505050565b60007f80ac58cd000000000000000000000000000000000000000000000000000000007bffffffffffffffffffffffffffffffffffffffffffffffffffffffff1916827bffffffffffffffffffffffffffffffffffffffffffffffffffffffff191614806115e857507f5b5e139f000000000000000000000000000000000000000000000000000000007bffffffffffffffffffffffffffffffffffffffffffffffffffffffff1916827bffffffffffffffffffffffffffffffffffffffffffffffffffffffff1916145b806115f857506115f782611896565b5b9050919050565b60008073ffffffffffffffffffffffffffffffffffffffff166002600084815260200190815260200160002060009054906101000a900473ffffffffffffffffffffffffffffffffffffffff1673ffffffffffffffffffffffffffffffffffffffff1614159050919050565b611676838383611900565b505050565b505050565b60006116a18473ffffffffffffffffffffffffffffffffffffffff16611a14565b1561180a578373ffffffffffffffffffffffffffffffffffffffff1663150b7a026116ca610c36565b8786866040518563ffffffff1660e01b81526004016116ec949392919061301d565b602060405180830381600087803b15801561170657600080fd5b505af192505050801561173757506040513d601f19601f82011682018060405250810190611734919061307e565b60015b6117ba573d8060008114611767576040519150601f19603f3d011682016040523d82523d6000602084013e61176c565b606091505b506000815114156117b2576040517f08c379a00000000000000000000000000000000000000000000000000000000081526004016117a990612dde565b60405180910390fd5b805181602001fd5b63150b7a0260e01b7bffffffffffffffffffffffffffffffffffffffffffffffffffffffff1916817bffffffffffffffffffffffffffffffffffffffffffffffffffffffff19161491505061180f565b600190505b949350505050565b606060405180602001604052806000815250905090565b606061183982610beb565b6000611843611817565b90506000815111611863576040518060200160405280600081525061188e565b8061186d84611a37565b60405160200161187e929190612e3a565b6040516020818303038152906040525b915050919050565b60007f01ffc9a7000000000000000000000000000000000000000000000000000000007bffffffffffffffffffffffffffffffffffffffffffffffffffffffff1916827bffffffffffffffffffffffffffffffffffffffffffffffffffffffff1916149050919050565b61190b838383611b98565b600073ffffffffffffffffffffffffffffffffffffffff168373ffffffffffffffffffffffffffffffffffffffff16141561194e5761194981611b9d565b61198d565b8173ffffffffffffffffffffffffffffffffffffffff168373ffffffffffffffffffffffffffffffffffffffff161461198c5761198b8382611be6565b5b5b600073ffffffffffffffffffffffffffffffffffffffff168273ffffffffffffffffffffffffffffffffffffffff1614156119d0576119cb81611d53565b611a0f565b8273ffffffffffffffffffffffffffffffffffffffff168273ffffffffffffffffffffffffffffffffffffffff1614611a0e57611a0d8282611e24565b5b5b505050565b6000808273ffffffffffffffffffffffffffffffffffffffff163b119050919050565b60606000821415611a7f576040518060400160405280600181526020017f30000000000000000000000000000000000000000000000000000000000000008152509050611b93565b600082905060005b60008214611ab1578080611a9a90612b09565b915050600a82611aaa91906130da565b9150611a87565b60008167ffffffffffffffff811115611acd57611acc61231b565b5b6040519080825280601f01601f191660200182016040528015611aff5781602001600182028036833780820191505090505b5090505b60008514611b8c57600182611b189190612c76565b9150600a85611b27919061310b565b6030611b339190612caa565b60f81b818381518110611b4957611b48612941565b5b60200101907effffffffffffffffffffffffffffffffffffffffffffffffffffffffffffff1916908160001a905350600a85611b8591906130da565b9450611b03565b8093505050505b919050565b505050565b6008805490506009600083815260200190815260200160002081905550600881908060018154018082558091505060019003906000526020600020016000909190919091505550565b60006001611bf38461082c565b611bfd9190612c76565b9050600060076000848152602001908152602001600020549050818114611ce2576000600660008673ffffffffffffffffffffffffffffffffffffffff1673ffffffffffffffffffffffffffffffffffffffff168152602001908152602001600020600084815260200190815260200160002054905080600660008773ffffffffffffffffffffffffffffffffffffffff1673ffffffffffffffffffffffffffffffffffffffff168152602001908152602001600020600084815260200190815260200160002081905550816007600083815260200190815260200160002081905550505b6007600084815260200190815260200160002060009055600660008573ffffffffffffffffffffffffffffffffffffffff1673ffffffffffffffffffffffffffffffffffffffff16815260200190815260200160002060008381526020019081526020016000206000905550505050565b60006001600880549050611d679190612c76565b9050600060096000848152602001908152602001600020549050600060088381548110611d9757611d96612941565b5b906000526020600020015490508060088381548110611db957611db8612941565b5b906000526020600020018190555081600960008381526020019081526020016000208190555060096000858152602001908152602001600020600090556008805480611e0857611e0761313c565b5b6001900381819060005260206000200160009055905550505050565b6000611e2f8361082c565b905081600660008573ffffffffffffffffffffffffffffffffffffffff1673ffffffffffffffffffffffffffffffffffffffff168152602001908152602001600020600083815260200190815260200160002081905550806007600084815260200190815260200160002081905550505050565b828054611eaf90612635565b90600052602060002090601f016020900481019282611ed15760008555611f18565b82601f10611eea57805160ff1916838001178555611f18565b82800160010185558215611f18579182015b82811115611f17578251825591602001919060010190611efc565b5b509050611f259190611f29565b5090565b5b80821115611f42576000816000905550600101611f2a565b5090565b6000604051905090565b600080fd5b600080fd5b60007fffffffff0000000000000000000000000000000000000000000000000000000082169050919050565b611f8f81611f5a565b8114611f9a57600080fd5b50565b600081359050611fac81611f86565b92915050565b600060208284031215611fc857611fc7611f50565b5b6000611fd684828501611f9d565b91505092915050565b60008115159050919050565b611ff481611fdf565b82525050565b600060208201905061200f6000830184611feb565b92915050565b600081519050919050565b600082825260208201905092915050565b60005b8381101561204f578082015181840152602081019050612034565b8381111561205e576000848401525b50505050565b6000601f19601f8301169050919050565b600061208082612015565b61208a8185612020565b935061209a818560208601612031565b6120a381612064565b840191505092915050565b600060208201905081810360008301526120c88184612075565b905092915050565b6000819050919050565b6120e3816120d0565b81146120ee57600080fd5b50565b600081359050612100816120da565b92915050565b60006020828403121561211c5761211b611f50565b5b600061212a848285016120f1565b91505092915050565b600073ffffffffffffffffffffffffffffffffffffffff82169050919050565b600061215e82612133565b9050919050565b61216e81612153565b82525050565b60006020820190506121896000830184612165565b92915050565b61219881612153565b81146121a357600080fd5b50565b6000813590506121b58161218f565b92915050565b600080604083850312156121d2576121d1611f50565b5b60006121e0858286016121a6565b92505060206121f1858286016120f1565b9150509250929050565b612204816120d0565b82525050565b600060208201905061221f60008301846121fb565b92915050565b60008060006060848603121561223e5761223d611f50565b5b600061224c868287016121a6565b935050602061225d868287016121a6565b925050604061226e868287016120f1565b9150509250925092565b60006020828403121561228e5761228d611f50565b5b600061229c848285016121a6565b91505092915050565b6122ae81611fdf565b81146122b957600080fd5b50565b6000813590506122cb816122a5565b92915050565b600080604083850312156122e8576122e7611f50565b5b60006122f6858286016121a6565b9250506020612307858286016122bc565b9150509250929050565b600080fd5b600080fd5b7f4e487b7100000000000000000000000000000000000000000000000000000000600052604160045260246000fd5b61235382612064565b810181811067ffffffffffffffff821117156123725761237161231b565b5b80604052505050565b6000612385611f46565b9050612391828261234a565b919050565b600067ffffffffffffffff8211156123b1576123b061231b565b5b6123ba82612064565b9050602081019050919050565b82818337600083830152505050565b60006123e96123e484612396565b61237b565b90508281526020810184848401111561240557612404612316565b5b6124108482856123c7565b509392505050565b600082601f83011261242d5761242c612311565b5b813561243d8482602086016123d6565b91505092915050565b600080600080608085870312156124605761245f611f50565b5b600061246e878288016121a6565b945050602061247f878288016121a6565b9350506040612490878288016120f1565b925050606085013567ffffffffffffffff8111156124b1576124b0611f55565b5b6124bd87828801612418565b91505092959194509250565b600067ffffffffffffffff8211156124e4576124e361231b565b5b6124ed82612064565b9050602081019050919050565b600061250d612508846124c9565b61237b565b90508281526020810184848401111561252957612528612316565b5b6125348482856123c7565b509392505050565b600082601f83011261255157612550612311565b5b81356125618482602086016124fa565b91505092915050565b6000806040838503121561258157612580611f50565b5b600061258f858286016121a6565b925050602083013567ffffffffffffffff8111156125b0576125af611f55565b5b6125bc8582860161253c565b9150509250929050565b600080604083850312156125dd576125dc611f50565b5b60006125eb858286016121a6565b92505060206125fc858286016121a6565b9150509250929050565b7f4e487b7100000000000000000000000000000000000000000000000000000000600052602260045260246000fd5b6000600282049050600182168061264d57607f821691505b6020821081141561266157612660612606565b5b50919050565b7f4552433732313a20617070726f76616c20746f2063757272656e74206f776e6560008201527f7200000000000000000000000000000000000000000000000000000000000000602082015250565b60006126c3602183612020565b91506126ce82612667565b604082019050919050565b600060208201905081810360008301526126f2816126b6565b9050919050565b7f4552433732313a20617070726f76652063616c6c6572206973206e6f7420746f60008201527f6b656e206f776e6572206e6f7220617070726f76656420666f7220616c6c0000602082015250565b6000612755603e83612020565b9150612760826126f9565b604082019050919050565b6000602082019050818103600083015261278481612748565b9050919050565b7f4552433732313a2063616c6c6572206973206e6f7420746f6b656e206f776e6560008201527f72206e6f7220617070726f766564000000000000000000000000000000000000602082015250565b60006127e7602e83612020565b91506127f28261278b565b604082019050919050565b60006020820190508181036000830152612816816127da565b9050919050565b7f455243373231456e756d657261626c653a206f776e657220696e646578206f7560008201527f74206f6620626f756e6473000000000000000000000000000000000000000000602082015250565b6000612879602b83612020565b91506128848261281d565b604082019050919050565b600060208201905081810360008301526128a88161286c565b9050919050565b7f455243373231456e756d657261626c653a20676c6f62616c20696e646578206f60008201527f7574206f6620626f756e64730000000000000000000000000000000000000000602082015250565b600061290b602c83612020565b9150612916826128af565b604082019050919050565b6000602082019050818103600083015261293a816128fe565b9050919050565b7f4e487b7100000000000000000000000000000000000000000000000000000000600052603260045260246000fd5b7f4552433732313a20696e76616c696420746f6b656e2049440000000000000000600082015250565b60006129a6601883612020565b91506129b182612970565b602082019050919050565b600060208201905081810360008301526129d581612999565b9050919050565b7f4552433732313a2061646472657373207a65726f206973206e6f74206120766160008201527f6c6964206f776e65720000000000000000000000000000000000000000000000602082015250565b6000612a38602983612020565b9150612a43826129dc565b604082019050919050565b60006020820190508181036000830152612a6781612a2b565b9050919050565b7f546865205f746f6b656e55726c206d7573742062652068617665000000000000600082015250565b6000612aa4601a83612020565b9150612aaf82612a6e565b602082019050919050565b60006020820190508181036000830152612ad381612a97565b9050919050565b7f4e487b7100000000000000000000000000000000000000000000000000000000600052601160045260246000fd5b6000612b14826120d0565b91507fffffffffffffffffffffffffffffffffffffffffffffffffffffffffffffffff821415612b4757612b46612ada565b5b600182019050919050565b7f4552433732313a207472616e736665722066726f6d20696e636f72726563742060008201527f6f776e6572000000000000000000000000000000000000000000000000000000602082015250565b6000612bae602583612020565b9150612bb982612b52565b604082019050919050565b60006020820190508181036000830152612bdd81612ba1565b9050919050565b7f4552433732313a207472616e7366657220746f20746865207a65726f2061646460008201527f7265737300000000000000000000000000000000000000000000000000000000602082015250565b6000612c40602483612020565b9150612c4b82612be4565b604082019050919050565b60006020820190508181036000830152612c6f81612c33565b9050919050565b6000612c81826120d0565b9150612c8c836120d0565b925082821015612c9f57612c9e612ada565b5b828203905092915050565b6000612cb5826120d0565b9150612cc0836120d0565b9250827fffffffffffffffffffffffffffffffffffffffffffffffffffffffffffffffff03821115612cf557612cf4612ada565b5b828201905092915050565b7f4552433732313a20617070726f766520746f2063616c6c657200000000000000600082015250565b6000612d36601983612020565b9150612d4182612d00565b602082019050919050565b60006020820190508181036000830152612d6581612d29565b9050919050565b7f4552433732313a207472616e7366657220746f206e6f6e20455243373231526560008201527f63656976657220696d706c656d656e7465720000000000000000000000000000602082015250565b6000612dc8603283612020565b9150612dd382612d6c565b604082019050919050565b60006020820190508181036000830152612df781612dbb565b9050919050565b600081905092915050565b6000612e1482612015565b612e1e8185612dfe565b9350612e2e818560208601612031565b80840191505092915050565b6000612e468285612e09565b9150612e528284612e09565b91508190509392505050565b7f4552433732313a206d696e7420746f20746865207a65726f2061646472657373600082015250565b6000612e94602083612020565b9150612e9f82612e5e565b602082019050919050565b60006020820190508181036000830152612ec381612e87565b9050919050565b7f4552433732313a20746f6b656e20616c7265616479206d696e74656400000000600082015250565b6000612f00601c83612020565b9150612f0b82612eca565b602082019050919050565b60006020820190508181036000830152612f2f81612ef3565b9050919050565b7f45524337323155524953746f726167653a2055524920736574206f66206e6f6e60008201527f6578697374656e7420746f6b656e000000000000000000000000000000000000602082015250565b6000612f92602e83612020565b9150612f9d82612f36565b604082019050919050565b60006020820190508181036000830152612fc181612f85565b9050919050565b600081519050919050565b600082825260208201905092915050565b6000612fef82612fc8565b612ff98185612fd3565b9350613009818560208601612031565b61301281612064565b840191505092915050565b60006080820190506130326000830187612165565b61303f6020830186612165565b61304c60408301856121fb565b818103606083015261305e8184612fe4565b905095945050505050565b60008151905061307881611f86565b92915050565b60006020828403121561309457613093611f50565b5b60006130a284828501613069565b91505092915050565b7f4e487b7100000000000000000000000000000000000000000000000000000000600052601260045260246000fd5b60006130e5826120d0565b91506130f0836120d0565b925082613100576130ff6130ab565b5b828204905092915050565b6000613116826120d0565b9150613121836120d0565b925082613131576131306130ab565b5b828206905092915050565b7f4e487b7100000000000000000000000000000000000000000000000000000000600052603160045260246000fdfea26469706673582212207fda6ac6ce23421811e6bc526deec11a6758b62cd8ba35dc0a6a51e93215c87b64736f6c63430008090033",
  "linkReferences": {},
  "deployedLinkReferences": {}
}